{
  "contractName": "DVideo",
  "abi": [
    {
      "inputs": [],
      "payable": false,
      "stateMutability": "nonpayable",
      "type": "constructor"
    },
    {
      "anonymous": false,
      "inputs": [
        {
          "indexed": false,
          "internalType": "uint256",
          "name": "id",
          "type": "uint256"
        },
        {
          "indexed": false,
          "internalType": "string",
          "name": "hash",
          "type": "string"
        },
        {
          "indexed": false,
          "internalType": "string",
          "name": "title",
          "type": "string"
        },
        {
          "indexed": false,
          "internalType": "address",
          "name": "author",
          "type": "address"
        }
      ],
      "name": "VideoDeleted",
      "type": "event"
    },
    {
      "anonymous": false,
      "inputs": [
        {
          "indexed": false,
          "internalType": "uint256",
          "name": "id",
          "type": "uint256"
        },
        {
          "indexed": false,
          "internalType": "string",
          "name": "hash",
          "type": "string"
        },
        {
          "indexed": false,
          "internalType": "string",
          "name": "title",
          "type": "string"
        },
        {
          "indexed": false,
          "internalType": "address",
          "name": "author",
          "type": "address"
        }
      ],
      "name": "VideoUploaded",
      "type": "event"
    },
    {
      "constant": true,
      "inputs": [],
      "name": "name",
      "outputs": [
        {
          "internalType": "string",
          "name": "",
          "type": "string"
        }
      ],
      "payable": false,
      "stateMutability": "view",
      "type": "function"
    },
    {
      "constant": true,
      "inputs": [],
      "name": "videoCount",
      "outputs": [
        {
          "internalType": "uint256",
          "name": "",
          "type": "uint256"
        }
      ],
      "payable": false,
      "stateMutability": "view",
      "type": "function"
    },
    {
      "constant": true,
      "inputs": [
        {
          "internalType": "uint256",
          "name": "",
          "type": "uint256"
        }
      ],
      "name": "videos",
      "outputs": [
        {
          "internalType": "uint256",
          "name": "id",
          "type": "uint256"
        },
        {
          "internalType": "string",
          "name": "hash",
          "type": "string"
        },
        {
          "internalType": "string",
          "name": "title",
          "type": "string"
        },
        {
          "internalType": "address",
          "name": "author",
          "type": "address"
        }
      ],
      "payable": false,
      "stateMutability": "view",
      "type": "function"
    },
    {
      "constant": false,
      "inputs": [
        {
          "internalType": "string",
          "name": "_videoHash",
          "type": "string"
        },
        {
          "internalType": "string",
          "name": "_title",
          "type": "string"
        }
      ],
      "name": "uploadVideo",
      "outputs": [],
      "payable": false,
      "stateMutability": "nonpayable",
      "type": "function"
    },
    {
      "constant": false,
      "inputs": [
        {
          "internalType": "uint256",
          "name": "_id",
          "type": "uint256"
        }
      ],
      "name": "deleteVideo",
      "outputs": [],
      "payable": false,
      "stateMutability": "nonpayable",
      "type": "function"
    }
  ],
  "bytecode": "0x6080604052600080556040518060400160405280600681526020017f44566964656f000000000000000000000000000000000000000000000000000081525060019080519060200190610053929190610066565b5034801561006057600080fd5b5061010b565b828054600181600116156101000203166002900490600052602060002090601f016020900481019282601f106100a757805160ff19168380011785556100d5565b828001600101855582156100d5579182015b828111156100d45782518255916020019190600101906100b9565b5b5090506100e291906100e6565b5090565b61010891905b808211156101045760008160009055506001016100ec565b5090565b90565b610dee8061011a6000396000f3fe608060405234801561001057600080fd5b50600436106100575760003560e01c806306fdde031461005c5780638a5447c5146100df578063c61b5f4c14610231578063d4ab873e1461024f578063e6821bf51461027d575b600080fd5b6100646103ca565b6040518080602001828103825283818151815260200191508051906020019080838360005b838110156100a4578082015181840152602081019050610089565b50505050905090810190601f1680156100d15780820380516001836020036101000a031916815260200191505b509250505060405180910390f35b61022f600480360360408110156100f557600080fd5b810190808035906020019064010000000081111561011257600080fd5b82018360208201111561012457600080fd5b8035906020019184600183028401116401000000008311171561014657600080fd5b91908080601f016020809104026020016040519081016040528093929190818152602001838380828437600081840152601f19601f820116905080830192505050505050509192919290803590602001906401000000008111156101a957600080fd5b8201836020820111156101bb57600080fd5b803590602001918460018302840111640100000000831117156101dd57600080fd5b91908080601f016020809104026020016040519081016040528093929190818152602001838380828437600081840152601f19601f820116905080830192505050505050509192919290505050610468565b005b6102396106f5565b6040518082815260200191505060405180910390f35b61027b6004803603602081101561026557600080fd5b81019080803590602001909291905050506106fb565b005b6102a96004803603602081101561029357600080fd5b8101908080359060200190929190505050610b0e565b6040518085815260200180602001806020018473ffffffffffffffffffffffffffffffffffffffff1673ffffffffffffffffffffffffffffffffffffffff168152602001838103835286818151815260200191508051906020019080838360005b8381101561032557808201518184015260208101905061030a565b50505050905090810190601f1680156103525780820380516001836020036101000a031916815260200191505b50838103825285818151815260200191508051906020019080838360005b8381101561038b578082015181840152602081019050610370565b50505050905090810190601f1680156103b85780820380516001836020036101000a031916815260200191505b50965050505050505060405180910390f35b60018054600181600116156101000203166002900480601f0160208091040260200160405190810160405280929190818152602001828054600181600116156101000203166002900480156104605780601f1061043557610100808354040283529160200191610460565b820191906000526020600020905b81548152906001019060200180831161044357829003601f168201915b505050505081565b600082511161047657600080fd5b600081511161048457600080fd5b600073ffffffffffffffffffffffffffffffffffffffff163373ffffffffffffffffffffffffffffffffffffffff1614156104be57600080fd5b6000808154809291906001019190505550604051806080016040528060005481526020018381526020018281526020013373ffffffffffffffffffffffffffffffffffffffff168152506002600080548152602001908152602001600020600082015181600001556020820151816001019080519060200190610542929190610c8e565b50604082015181600201908051906020019061055f929190610c8e565b5060608201518160030160006101000a81548173ffffffffffffffffffffffffffffffffffffffff021916908373ffffffffffffffffffffffffffffffffffffffff1602179055509050507f2c44b862f4b4e08a26a765f9499900759a9ec95360a6f174d53163bd5d367f676000548383336040518085815260200180602001806020018473ffffffffffffffffffffffffffffffffffffffff1673ffffffffffffffffffffffffffffffffffffffff168152602001838103835286818151815260200191508051906020019080838360005b8381101561064d578082015181840152602081019050610632565b50505050905090810190601f16801561067a5780820380516001836020036101000a031916815260200191505b50838103825285818151815260200191508051906020019080838360005b838110156106b3578082015181840152602081019050610698565b50505050905090810190601f1680156106e05780820380516001836020036101000a031916815260200191505b50965050505050505060405180910390a15050565b60005481565b60008111801561070d57506000548111155b61071657600080fd5b600073ffffffffffffffffffffffffffffffffffffffff163373ffffffffffffffffffffffffffffffffffffffff16141561075057600080fd5b610758610d0e565b6002600083815260200190815260200160002060405180608001604052908160008201548152602001600182018054600181600116156101000203166002900480601f0160208091040260200160405190810160405280929190818152602001828054600181600116156101000203166002900480156108195780601f106107ee57610100808354040283529160200191610819565b820191906000526020600020905b8154815290600101906020018083116107fc57829003601f168201915b50505050508152602001600282018054600181600116156101000203166002900480601f0160208091040260200160405190810160405280929190818152602001828054600181600116156101000203166002900480156108bb5780601f10610890576101008083540402835291602001916108bb565b820191906000526020600020905b81548152906001019060200180831161089e57829003601f168201915b505050505081526020016003820160009054906101000a900473ffffffffffffffffffffffffffffffffffffffff1673ffffffffffffffffffffffffffffffffffffffff1673ffffffffffffffffffffffffffffffffffffffff168152505090503373ffffffffffffffffffffffffffffffffffffffff16816060015173ffffffffffffffffffffffffffffffffffffffff161461095857600080fd5b600260008381526020019081526020016000206000808201600090556001820160006109849190610d4c565b6002820160006109949190610d4c565b6003820160006101000a81549073ffffffffffffffffffffffffffffffffffffffff021916905550507f8bd409e31eed43d348af2398ba1e28db95ea1b0d236d8df8009bb85c8ba0cef28282602001518360400151336040518085815260200180602001806020018473ffffffffffffffffffffffffffffffffffffffff1673ffffffffffffffffffffffffffffffffffffffff168152602001838103835286818151815260200191508051906020019080838360005b83811015610a66578082015181840152602081019050610a4b565b50505050905090810190601f168015610a935780820380516001836020036101000a031916815260200191505b50838103825285818151815260200191508051906020019080838360005b83811015610acc578082015181840152602081019050610ab1565b50505050905090810190601f168015610af95780820380516001836020036101000a031916815260200191505b50965050505050505060405180910390a15050565b6002602052806000526040600020600091509050806000015490806001018054600181600116156101000203166002900480601f016020809104026020016040519081016040528092919081815260200182805460018160011615610100020316600290048015610bc05780601f10610b9557610100808354040283529160200191610bc0565b820191906000526020600020905b815481529060010190602001808311610ba357829003601f168201915b505050505090806002018054600181600116156101000203166002900480601f016020809104026020016040519081016040528092919081815260200182805460018160011615610100020316600290048015610c5e5780601f10610c3357610100808354040283529160200191610c5e565b820191906000526020600020905b815481529060010190602001808311610c4157829003601f168201915b5050505050908060030160009054906101000a900473ffffffffffffffffffffffffffffffffffffffff16905084565b828054600181600116156101000203166002900490600052602060002090601f016020900481019282601f10610ccf57805160ff1916838001178555610cfd565b82800160010185558215610cfd579182015b82811115610cfc578251825591602001919060010190610ce1565b5b509050610d0a9190610d94565b5090565b6040518060800160405280600081526020016060815260200160608152602001600073ffffffffffffffffffffffffffffffffffffffff1681525090565b50805460018160011615610100020316600290046000825580601f10610d725750610d91565b601f016020900490600052602060002090810190610d909190610d94565b5b50565b610db691905b80821115610db2576000816000905550600101610d9a565b5090565b9056fea265627a7a723158201278c490ee060df7f400edc5bc571041afe72b22395bb7942d72ecba20f19df064736f6c63430005100032",
  "source": "pragma solidity ^0.5.0;\r\n\r\ncontract DVideo {\r\n  \r\n  uint public videoCount = 0;\r\n  string public name = \"DVideo\";\r\n  \r\n  mapping(uint => Video) public videos;\r\n\r\n  struct Video {\r\n    uint id;\r\n    string hash;\r\n    string title;\r\n    address author;\r\n  }\r\n\r\n  event VideoUploaded (\r\n    uint id,\r\n    string hash,\r\n    string title,\r\n    address author\r\n  );\r\n\r\n  event VideoDeleted (\r\n    uint id,\r\n    string hash,\r\n    string title,\r\n    address author\r\n  );\r\n\r\n  constructor() public { }\r\n\r\n  function uploadVideo(string memory _videoHash, string memory _title) public {\r\n    \r\n    require(bytes(_videoHash).length > 0); \r\n    require(bytes(_title).length > 0); \r\n    require(msg.sender != address(0x0));\r\n\r\n    videoCount ++;\r\n\r\n    videos[videoCount] = Video(videoCount, _videoHash, _title, msg.sender);\r\n\r\n    emit VideoUploaded(videoCount, _videoHash, _title, msg.sender);\r\n  }\r\n\r\n  function deleteVideo(uint _id) public {\r\n\r\n    require(_id > 0 && _id <= videoCount); \r\n    \r\n    require(msg.sender != address(0x0));\r\n\r\n    Video memory video = videos[_id];  \r\n\r\n    require(video.author == msg.sender);\r\n    \r\n    delete videos[_id];\r\n\r\n    emit VideoDeleted(_id, video.hash, video.title, msg.sender);\r\n  }\r\n\r\n}\r\n",
  "sourcePath": "C:/Users/Furkan/Desktop/Blockchain/Youtube/Dapp Development/Dvideo/src/contracts/DVideo.sol",
  "compiler": {
    "name": "solc",
    "version": "0.5.16+commit.9c3226ce.Emscripten.clang"
  },
  "schemaVersion": "3.2.3",
  "updatedAt": "2022-03-26T10:49:02.459Z",
  "networkType": "ethereum",
  "devdoc": {
    "methods": {}
  },
  "userdoc": {
    "methods": {}
  }
}